{
  "_format": "hh-sol-artifact-1",
  "contractName": "Governance",
  "sourceName": "contracts/Governance.sol",
  "abi": [
    {
      "inputs": [
        {
          "internalType": "string",
          "name": "description",
          "type": "string"
        }
      ],
      "name": "createProposal",
      "outputs": [],
      "stateMutability": "nonpayable",
      "type": "function"
    },
    {
      "inputs": [
        {
          "internalType": "uint256",
          "name": "proposalId",
          "type": "uint256"
        }
      ],
      "name": "executeProposal",
      "outputs": [],
      "stateMutability": "nonpayable",
      "type": "function"
    },
    {
      "inputs": [],
      "name": "proposalCount",
      "outputs": [
        {
          "internalType": "uint256",
          "name": "",
          "type": "uint256"
        }
      ],
      "stateMutability": "view",
      "type": "function"
    },
    {
      "inputs": [
        {
          "internalType": "uint256",
          "name": "",
          "type": "uint256"
        }
      ],
      "name": "proposals",
      "outputs": [
        {
          "internalType": "uint256",
          "name": "id",
          "type": "uint256"
        },
        {
          "internalType": "string",
          "name": "description",
          "type": "string"
        },
        {
          "internalType": "uint256",
          "name": "voteCount",
          "type": "uint256"
        },
        {
          "internalType": "bool",
          "name": "executed",
          "type": "bool"
        }
      ],
      "stateMutability": "view",
      "type": "function"
    },
    {
      "inputs": [
        {
          "internalType": "uint256",
          "name": "proposalId",
          "type": "uint256"
        }
      ],
      "name": "vote",
      "outputs": [],
      "stateMutability": "nonpayable",
      "type": "function"
    }
  ],
  "bytecode": "0x608060405234801561001057600080fd5b50610a33806100206000396000f3fe608060405234801561001057600080fd5b50600436106100575760003560e01c80630121b93f1461005c578063013cf08b146100785780630d61b519146100ab57806349c2a1a6146100c7578063da35c664146100e3575b600080fd5b61007660048036038101906100719190610370565b610101565b005b610092600480360381019061008d9190610370565b61012f565b6040516100a29493929190610457565b60405180910390f35b6100c560048036038101906100c09190610370565b6101f4565b005b6100e160048036038101906100dc91906105d8565b61027d565b005b6100eb610320565b6040516100f89190610621565b60405180910390f35b60008082815260200190815260200160002060020160008154809291906101279061066b565b919050555050565b6000602052806000526040600020600091509050806000015490806001018054610158906106e2565b80601f0160208091040260200160405190810160405280929190818152602001828054610184906106e2565b80156101d15780601f106101a6576101008083540402835291602001916101d1565b820191906000526020600020905b8154815290600101906020018083116101b457829003601f168201915b5050505050908060020154908060030160009054906101000a900460ff16905084565b6064600080838152602001908152602001600020600201541161024c576040517f08c379a00000000000000000000000000000000000000000000000000000000081526004016102439061075f565b60405180910390fd5b600160008083815260200190815260200160002060030160006101000a81548160ff02191690831515021790555050565b600160008154809291906102909061066b565b919050555060405180608001604052806001548152602001828152602001600081526020016000151581525060008060015481526020019081526020016000206000820151816000015560208201518160010190816102ef919061092b565b506040820151816002015560608201518160030160006101000a81548160ff02191690831515021790555090505050565b60015481565b6000604051905090565b600080fd5b600080fd5b6000819050919050565b61034d8161033a565b811461035857600080fd5b50565b60008135905061036a81610344565b92915050565b60006020828403121561038657610385610330565b5b60006103948482850161035b565b91505092915050565b6103a68161033a565b82525050565b600081519050919050565b600082825260208201905092915050565b60005b838110156103e65780820151818401526020810190506103cb565b60008484015250505050565b6000601f19601f8301169050919050565b600061040e826103ac565b61041881856103b7565b93506104288185602086016103c8565b610431816103f2565b840191505092915050565b60008115159050919050565b6104518161043c565b82525050565b600060808201905061046c600083018761039d565b818103602083015261047e8186610403565b905061048d604083018561039d565b61049a6060830184610448565b95945050505050565b600080fd5b600080fd5b7f4e487b7100000000000000000000000000000000000000000000000000000000600052604160045260246000fd5b6104e5826103f2565b810181811067ffffffffffffffff82111715610504576105036104ad565b5b80604052505050565b6000610517610326565b905061052382826104dc565b919050565b600067ffffffffffffffff821115610543576105426104ad565b5b61054c826103f2565b9050602081019050919050565b82818337600083830152505050565b600061057b61057684610528565b61050d565b905082815260208101848484011115610597576105966104a8565b5b6105a2848285610559565b509392505050565b600082601f8301126105bf576105be6104a3565b5b81356105cf848260208601610568565b91505092915050565b6000602082840312156105ee576105ed610330565b5b600082013567ffffffffffffffff81111561060c5761060b610335565b5b610618848285016105aa565b91505092915050565b6000602082019050610636600083018461039d565b92915050565b7f4e487b7100000000000000000000000000000000000000000000000000000000600052601160045260246000fd5b60006106768261033a565b91507fffffffffffffffffffffffffffffffffffffffffffffffffffffffffffffffff82036106a8576106a761063c565b5b600182019050919050565b7f4e487b7100000000000000000000000000000000000000000000000000000000600052602260045260246000fd5b600060028204905060018216806106fa57607f821691505b60208210810361070d5761070c6106b3565b5b50919050565b7f4e6f7420656e6f75676820766f74657300000000000000000000000000000000600082015250565b60006107496010836103b7565b915061075482610713565b602082019050919050565b600060208201905081810360008301526107788161073c565b9050919050565b60008190508160005260206000209050919050565b60006020601f8301049050919050565b600082821b905092915050565b6000600883026107e17fffffffffffffffffffffffffffffffffffffffffffffffffffffffffffffffff826107a4565b6107eb86836107a4565b95508019841693508086168417925050509392505050565b6000819050919050565b600061082861082361081e8461033a565b610803565b61033a565b9050919050565b6000819050919050565b6108428361080d565b61085661084e8261082f565b8484546107b1565b825550505050565b600090565b61086b61085e565b610876818484610839565b505050565b5b8181101561089a5761088f600082610863565b60018101905061087c565b5050565b601f8211156108df576108b08161077f565b6108b984610794565b810160208510156108c8578190505b6108dc6108d485610794565b83018261087b565b50505b505050565b600082821c905092915050565b6000610902600019846008026108e4565b1980831691505092915050565b600061091b83836108f1565b9150826002028217905092915050565b610934826103ac565b67ffffffffffffffff81111561094d5761094c6104ad565b5b61095782546106e2565b61096282828561089e565b600060209050601f8311600181146109955760008415610983578287015190505b61098d858261090f565b8655506109f5565b601f1984166109a38661077f565b60005b828110156109cb578489015182556001820191506020850194506020810190506109a6565b868310156109e857848901516109e4601f8916826108f1565b8355505b6001600288020188555050505b50505050505056fea2646970667358221220b325fe99f7eab1ad894b3aba6b4f652c850a434f70f858803ce70a08ceb39c3064736f6c63430008140033",
  "linkReferences": {},
  "deployedLinkReferences": {}
}