{
  "_format": "hh3-artifact-1",
  "contractName": "MockConstitutionalCourt",
  "sourceName": "contracts/test/MockConstitutionalCourt.sol",
  "abi": [
    {
      "inputs": [],
      "stateMutability": "nonpayable",
      "type": "constructor"
    },
    {
      "inputs": [
        {
          "internalType": "address",
          "name": "owner",
          "type": "address"
        }
      ],
      "name": "OwnableInvalidOwner",
      "type": "error"
    },
    {
      "inputs": [
        {
          "internalType": "address",
          "name": "account",
          "type": "address"
        }
      ],
      "name": "OwnableUnauthorizedAccount",
      "type": "error"
    },
    {
      "anonymous": false,
      "inputs": [
        {
          "indexed": true,
          "internalType": "address",
          "name": "previousOwner",
          "type": "address"
        },
        {
          "indexed": true,
          "internalType": "address",
          "name": "newOwner",
          "type": "address"
        }
      ],
      "name": "OwnershipTransferred",
      "type": "event"
    },
    {
      "anonymous": false,
      "inputs": [
        {
          "indexed": true,
          "internalType": "uint256",
          "name": "requestId",
          "type": "uint256"
        },
        {
          "indexed": true,
          "internalType": "address",
          "name": "approver",
          "type": "address"
        }
      ],
      "name": "WithdrawalApproved",
      "type": "event"
    },
    {
      "inputs": [
        {
          "internalType": "uint256",
          "name": "requestId",
          "type": "uint256"
        }
      ],
      "name": "approveWithdrawal",
      "outputs": [],
      "stateMutability": "nonpayable",
      "type": "function"
    },
    {
      "inputs": [
        {
          "internalType": "uint256",
          "name": "",
          "type": "uint256"
        }
      ],
      "name": "approvedRequests",
      "outputs": [
        {
          "internalType": "bool",
          "name": "",
          "type": "bool"
        }
      ],
      "stateMutability": "view",
      "type": "function"
    },
    {
      "inputs": [
        {
          "internalType": "uint256",
          "name": "requestId",
          "type": "uint256"
        }
      ],
      "name": "getApprovalCount",
      "outputs": [
        {
          "internalType": "uint256",
          "name": "",
          "type": "uint256"
        }
      ],
      "stateMutability": "pure",
      "type": "function"
    },
    {
      "inputs": [
        {
          "internalType": "uint256",
          "name": "requestId",
          "type": "uint256"
        }
      ],
      "name": "isApproved",
      "outputs": [
        {
          "internalType": "bool",
          "name": "",
          "type": "bool"
        }
      ],
      "stateMutability": "view",
      "type": "function"
    },
    {
      "inputs": [],
      "name": "owner",
      "outputs": [
        {
          "internalType": "address",
          "name": "",
          "type": "address"
        }
      ],
      "stateMutability": "view",
      "type": "function"
    },
    {
      "inputs": [],
      "name": "renounceOwnership",
      "outputs": [],
      "stateMutability": "nonpayable",
      "type": "function"
    },
    {
      "inputs": [
        {
          "internalType": "address",
          "name": "newOwner",
          "type": "address"
        }
      ],
      "name": "transferOwnership",
      "outputs": [],
      "stateMutability": "nonpayable",
      "type": "function"
    }
  ],
  "bytecode": "0x608060405234801561000f575f80fd5b50335f73ffffffffffffffffffffffffffffffffffffffff168173ffffffffffffffffffffffffffffffffffffffff1603610081575f6040517f1e4fbdf70000000000000000000000000000000000000000000000000000000081526004016100789190610196565b60405180910390fd5b6100908161009660201b60201c565b506101af565b5f805f9054906101000a900473ffffffffffffffffffffffffffffffffffffffff169050815f806101000a81548173ffffffffffffffffffffffffffffffffffffffff021916908373ffffffffffffffffffffffffffffffffffffffff1602179055508173ffffffffffffffffffffffffffffffffffffffff168173ffffffffffffffffffffffffffffffffffffffff167f8be0079c531659141344cd1fd0a4f28419497f9722a3daafe3b4186f6b6457e060405160405180910390a35050565b5f73ffffffffffffffffffffffffffffffffffffffff82169050919050565b5f61018082610157565b9050919050565b61019081610176565b82525050565b5f6020820190506101a95f830184610187565b92915050565b6105e0806101bc5f395ff3fe608060405234801561000f575f80fd5b506004361061007b575f3560e01c80638da5cb5b116100595780638da5cb5b146100e95780639eceddea14610107578063ba7e7cab14610123578063f2fde38b146101535761007b565b80630dce292e1461007f578063715018a6146100af5780637910867b146100b9575b5f80fd5b61009960048036038101906100949190610477565b61016f565b6040516100a691906104bc565b60405180910390f35b6100b761018c565b005b6100d360048036038101906100ce9190610477565b61019f565b6040516100e091906104bc565b60405180910390f35b6100f16101c5565b6040516100fe9190610514565b60405180910390f35b610121600480360381019061011c9190610477565b6101ec565b005b61013d60048036038101906101389190610477565b610263565b60405161014a919061053c565b60405180910390f35b61016d6004803603810190610168919061057f565b61026d565b005b6001602052805f5260405f205f915054906101000a900460ff1681565b6101946102f1565b61019d5f610378565b565b5f60015f8381526020019081526020015f205f9054906101000a900460ff169050919050565b5f805f9054906101000a900473ffffffffffffffffffffffffffffffffffffffff16905090565b6101f46102f1565b6001805f8381526020019081526020015f205f6101000a81548160ff0219169083151502179055503373ffffffffffffffffffffffffffffffffffffffff16817f7ab1df95613019ba98da0113a7adf5073c9fa62d93b5f202502115266aadc06a60405160405180910390a350565b5f60059050919050565b6102756102f1565b5f73ffffffffffffffffffffffffffffffffffffffff168173ffffffffffffffffffffffffffffffffffffffff16036102e5575f6040517f1e4fbdf70000000000000000000000000000000000000000000000000000000081526004016102dc9190610514565b60405180910390fd5b6102ee81610378565b50565b6102f9610439565b73ffffffffffffffffffffffffffffffffffffffff166103176101c5565b73ffffffffffffffffffffffffffffffffffffffff16146103765761033a610439565b6040517f118cdaa700000000000000000000000000000000000000000000000000000000815260040161036d9190610514565b60405180910390fd5b565b5f805f9054906101000a900473ffffffffffffffffffffffffffffffffffffffff169050815f806101000a81548173ffffffffffffffffffffffffffffffffffffffff021916908373ffffffffffffffffffffffffffffffffffffffff1602179055508173ffffffffffffffffffffffffffffffffffffffff168173ffffffffffffffffffffffffffffffffffffffff167f8be0079c531659141344cd1fd0a4f28419497f9722a3daafe3b4186f6b6457e060405160405180910390a35050565b5f33905090565b5f80fd5b5f819050919050565b61045681610444565b8114610460575f80fd5b50565b5f813590506104718161044d565b92915050565b5f6020828403121561048c5761048b610440565b5b5f61049984828501610463565b91505092915050565b5f8115159050919050565b6104b6816104a2565b82525050565b5f6020820190506104cf5f8301846104ad565b92915050565b5f73ffffffffffffffffffffffffffffffffffffffff82169050919050565b5f6104fe826104d5565b9050919050565b61050e816104f4565b82525050565b5f6020820190506105275f830184610505565b92915050565b61053681610444565b82525050565b5f60208201905061054f5f83018461052d565b92915050565b61055e816104f4565b8114610568575f80fd5b50565b5f8135905061057981610555565b92915050565b5f6020828403121561059457610593610440565b5b5f6105a18482850161056b565b9150509291505056fea2646970667358221220664589a9d8fae588c69e9080428b7556f7d90ec4a1bb33462856499f048b032964736f6c63430008140033",
  "linkReferences": {},
  "deployedLinkReferences": {},
  "immutableReferences": {},
  "inputSourceName": "project/contracts/test/MockConstitutionalCourt.sol",
  "buildInfoId": "solc-0_8_20-8a593f0f05087a173d9908d71b16b3ba4a277648"
}