{
  "_format": "hh-sol-artifact-1",
  "contractName": "AZR",
  "sourceName": "contracts/AZR.sol",
  "abi": [
    {
      "inputs": [
        {
          "internalType": "address",
          "name": "initialOwner",
          "type": "address"
        }
      ],
      "stateMutability": "nonpayable",
      "type": "constructor"
    },
    {
      "inputs": [
        {
          "internalType": "address",
          "name": "spender",
          "type": "address"
        },
        {
          "internalType": "uint256",
          "name": "allowance",
          "type": "uint256"
        },
        {
          "internalType": "uint256",
          "name": "needed",
          "type": "uint256"
        }
      ],
      "name": "ERC20InsufficientAllowance",
      "type": "error"
    },
    {
      "inputs": [
        {
          "internalType": "address",
          "name": "sender",
          "type": "address"
        },
        {
          "internalType": "uint256",
          "name": "balance",
          "type": "uint256"
        },
        {
          "internalType": "uint256",
          "name": "needed",
          "type": "uint256"
        }
      ],
      "name": "ERC20InsufficientBalance",
      "type": "error"
    },
    {
      "inputs": [
        {
          "internalType": "address",
          "name": "approver",
          "type": "address"
        }
      ],
      "name": "ERC20InvalidApprover",
      "type": "error"
    },
    {
      "inputs": [
        {
          "internalType": "address",
          "name": "receiver",
          "type": "address"
        }
      ],
      "name": "ERC20InvalidReceiver",
      "type": "error"
    },
    {
      "inputs": [
        {
          "internalType": "address",
          "name": "sender",
          "type": "address"
        }
      ],
      "name": "ERC20InvalidSender",
      "type": "error"
    },
    {
      "inputs": [
        {
          "internalType": "address",
          "name": "spender",
          "type": "address"
        }
      ],
      "name": "ERC20InvalidSpender",
      "type": "error"
    },
    {
      "inputs": [
        {
          "internalType": "address",
          "name": "owner",
          "type": "address"
        }
      ],
      "name": "OwnableInvalidOwner",
      "type": "error"
    },
    {
      "inputs": [
        {
          "internalType": "address",
          "name": "account",
          "type": "address"
        }
      ],
      "name": "OwnableUnauthorizedAccount",
      "type": "error"
    },
    {
      "anonymous": false,
      "inputs": [
        {
          "indexed": true,
          "internalType": "address",
          "name": "owner",
          "type": "address"
        },
        {
          "indexed": true,
          "internalType": "address",
          "name": "spender",
          "type": "address"
        },
        {
          "indexed": false,
          "internalType": "uint256",
          "name": "value",
          "type": "uint256"
        }
      ],
      "name": "Approval",
      "type": "event"
    },
    {
      "anonymous": false,
      "inputs": [
        {
          "indexed": true,
          "internalType": "address",
          "name": "previousOwner",
          "type": "address"
        },
        {
          "indexed": true,
          "internalType": "address",
          "name": "newOwner",
          "type": "address"
        }
      ],
      "name": "OwnershipTransferred",
      "type": "event"
    },
    {
      "anonymous": false,
      "inputs": [
        {
          "indexed": true,
          "internalType": "address",
          "name": "from",
          "type": "address"
        },
        {
          "indexed": true,
          "internalType": "address",
          "name": "to",
          "type": "address"
        },
        {
          "indexed": false,
          "internalType": "uint256",
          "name": "value",
          "type": "uint256"
        }
      ],
      "name": "Transfer",
      "type": "event"
    },
    {
      "inputs": [
        {
          "internalType": "address",
          "name": "owner",
          "type": "address"
        },
        {
          "internalType": "address",
          "name": "spender",
          "type": "address"
        }
      ],
      "name": "allowance",
      "outputs": [
        {
          "internalType": "uint256",
          "name": "",
          "type": "uint256"
        }
      ],
      "stateMutability": "view",
      "type": "function"
    },
    {
      "inputs": [
        {
          "internalType": "address",
          "name": "spender",
          "type": "address"
        },
        {
          "internalType": "uint256",
          "name": "value",
          "type": "uint256"
        }
      ],
      "name": "approve",
      "outputs": [
        {
          "internalType": "bool",
          "name": "",
          "type": "bool"
        }
      ],
      "stateMutability": "nonpayable",
      "type": "function"
    },
    {
      "inputs": [
        {
          "internalType": "address",
          "name": "account",
          "type": "address"
        }
      ],
      "name": "balanceOf",
      "outputs": [
        {
          "internalType": "uint256",
          "name": "",
          "type": "uint256"
        }
      ],
      "stateMutability": "view",
      "type": "function"
    },
    {
      "inputs": [
        {
          "internalType": "address",
          "name": "from",
          "type": "address"
        },
        {
          "internalType": "uint256",
          "name": "amount",
          "type": "uint256"
        }
      ],
      "name": "burn",
      "outputs": [],
      "stateMutability": "nonpayable",
      "type": "function"
    },
    {
      "inputs": [],
      "name": "decimals",
      "outputs": [
        {
          "internalType": "uint8",
          "name": "",
          "type": "uint8"
        }
      ],
      "stateMutability": "view",
      "type": "function"
    },
    {
      "inputs": [
        {
          "internalType": "address",
          "name": "user",
          "type": "address"
        }
      ],
      "name": "getLoanDetails",
      "outputs": [
        {
          "internalType": "uint256",
          "name": "",
          "type": "uint256"
        }
      ],
      "stateMutability": "view",
      "type": "function"
    },
    {
      "inputs": [],
      "name": "interestRate",
      "outputs": [
        {
          "internalType": "uint256",
          "name": "",
          "type": "uint256"
        }
      ],
      "stateMutability": "view",
      "type": "function"
    },
    {
      "inputs": [
        {
          "internalType": "address",
          "name": "",
          "type": "address"
        }
      ],
      "name": "loans",
      "outputs": [
        {
          "internalType": "uint256",
          "name": "",
          "type": "uint256"
        }
      ],
      "stateMutability": "view",
      "type": "function"
    },
    {
      "inputs": [
        {
          "internalType": "address",
          "name": "to",
          "type": "address"
        },
        {
          "internalType": "uint256",
          "name": "amount",
          "type": "uint256"
        }
      ],
      "name": "mint",
      "outputs": [],
      "stateMutability": "nonpayable",
      "type": "function"
    },
    {
      "inputs": [
        {
          "internalType": "address",
          "name": "to",
          "type": "address"
        },
        {
          "internalType": "uint256",
          "name": "amount",
          "type": "uint256"
        }
      ],
      "name": "mintLoan",
      "outputs": [],
      "stateMutability": "nonpayable",
      "type": "function"
    },
    {
      "inputs": [],
      "name": "name",
      "outputs": [
        {
          "internalType": "string",
          "name": "",
          "type": "string"
        }
      ],
      "stateMutability": "view",
      "type": "function"
    },
    {
      "inputs": [],
      "name": "owner",
      "outputs": [
        {
          "internalType": "address",
          "name": "",
          "type": "address"
        }
      ],
      "stateMutability": "view",
      "type": "function"
    },
    {
      "inputs": [],
      "name": "renounceOwnership",
      "outputs": [],
      "stateMutability": "nonpayable",
      "type": "function"
    },
    {
      "inputs": [
        {
          "internalType": "uint256",
          "name": "amount",
          "type": "uint256"
        }
      ],
      "name": "repayLoan",
      "outputs": [],
      "stateMutability": "nonpayable",
      "type": "function"
    },
    {
      "inputs": [],
      "name": "symbol",
      "outputs": [
        {
          "internalType": "string",
          "name": "",
          "type": "string"
        }
      ],
      "stateMutability": "view",
      "type": "function"
    },
    {
      "inputs": [],
      "name": "totalSupply",
      "outputs": [
        {
          "internalType": "uint256",
          "name": "",
          "type": "uint256"
        }
      ],
      "stateMutability": "view",
      "type": "function"
    },
    {
      "inputs": [
        {
          "internalType": "address",
          "name": "to",
          "type": "address"
        },
        {
          "internalType": "uint256",
          "name": "value",
          "type": "uint256"
        }
      ],
      "name": "transfer",
      "outputs": [
        {
          "internalType": "bool",
          "name": "",
          "type": "bool"
        }
      ],
      "stateMutability": "nonpayable",
      "type": "function"
    },
    {
      "inputs": [
        {
          "internalType": "address",
          "name": "from",
          "type": "address"
        },
        {
          "internalType": "address",
          "name": "to",
          "type": "address"
        },
        {
          "internalType": "uint256",
          "name": "value",
          "type": "uint256"
        }
      ],
      "name": "transferFrom",
      "outputs": [
        {
          "internalType": "bool",
          "name": "",
          "type": "bool"
        }
      ],
      "stateMutability": "nonpayable",
      "type": "function"
    },
    {
      "inputs": [
        {
          "internalType": "address",
          "name": "newOwner",
          "type": "address"
        }
      ],
      "name": "transferOwnership",
      "outputs": [],
      "stateMutability": "nonpayable",
      "type": "function"
    }
  ],
  "bytecode": "0x608060405260056007553480156200001657600080fd5b5060405162001b4c38038062001b4c83398181016040528101906200003c91906200028d565b806040518060400160405280600581526020017f417a6f72610000000000000000000000000000000000000000000000000000008152506040518060400160405280600381526020017f415a5200000000000000000000000000000000000000000000000000000000008152508160039081620000ba919062000539565b508060049081620000cc919062000539565b505050600073ffffffffffffffffffffffffffffffffffffffff168173ffffffffffffffffffffffffffffffffffffffff1603620001445760006040517f1e4fbdf70000000000000000000000000000000000000000000000000000000081526004016200013b919062000631565b60405180910390fd5b62000155816200015d60201b60201c565b50506200064e565b6000600560009054906101000a900473ffffffffffffffffffffffffffffffffffffffff16905081600560006101000a81548173ffffffffffffffffffffffffffffffffffffffff021916908373ffffffffffffffffffffffffffffffffffffffff1602179055508173ffffffffffffffffffffffffffffffffffffffff168173ffffffffffffffffffffffffffffffffffffffff167f8be0079c531659141344cd1fd0a4f28419497f9722a3daafe3b4186f6b6457e060405160405180910390a35050565b600080fd5b600073ffffffffffffffffffffffffffffffffffffffff82169050919050565b6000620002558262000228565b9050919050565b620002678162000248565b81146200027357600080fd5b50565b60008151905062000287816200025c565b92915050565b600060208284031215620002a657620002a562000223565b5b6000620002b68482850162000276565b91505092915050565b600081519050919050565b7f4e487b7100000000000000000000000000000000000000000000000000000000600052604160045260246000fd5b7f4e487b7100000000000000000000000000000000000000000000000000000000600052602260045260246000fd5b600060028204905060018216806200034157607f821691505b602082108103620003575762000356620002f9565b5b50919050565b60008190508160005260206000209050919050565b60006020601f8301049050919050565b600082821b905092915050565b600060088302620003c17fffffffffffffffffffffffffffffffffffffffffffffffffffffffffffffffff8262000382565b620003cd868362000382565b95508019841693508086168417925050509392505050565b6000819050919050565b6000819050919050565b60006200041a620004146200040e84620003e5565b620003ef565b620003e5565b9050919050565b6000819050919050565b6200043683620003f9565b6200044e620004458262000421565b8484546200038f565b825550505050565b600090565b6200046562000456565b620004728184846200042b565b505050565b5b818110156200049a576200048e6000826200045b565b60018101905062000478565b5050565b601f821115620004e957620004b3816200035d565b620004be8462000372565b81016020851015620004ce578190505b620004e6620004dd8562000372565b83018262000477565b50505b505050565b600082821c905092915050565b60006200050e60001984600802620004ee565b1980831691505092915050565b6000620005298383620004fb565b9150826002028217905092915050565b6200054482620002bf565b67ffffffffffffffff81111562000560576200055f620002ca565b5b6200056c825462000328565b620005798282856200049e565b600060209050601f831160018114620005b157600084156200059c578287015190505b620005a885826200051b565b86555062000618565b601f198416620005c1866200035d565b60005b82811015620005eb57848901518255600182019150602085019450602081019050620005c4565b868310156200060b578489015162000607601f891682620004fb565b8355505b6001600288020188555050505b505050505050565b6200062b8162000248565b82525050565b600060208201905062000648600083018462000620565b92915050565b6114ee806200065e6000396000f3fe608060405234801561001057600080fd5b50600436106101215760003560e01c806373b4086b116100ad578063a9059cbb11610071578063a9059cbb146102f8578063ab7b1c8914610328578063dd62ed3e14610344578063e8a7da8e14610374578063f2fde38b146103a457610121565b806373b4086b146102525780637c3a00fd146102825780638da5cb5b146102a057806395d89b41146102be5780639dc29fac146102dc57610121565b80632adf2d2c116100f45780632adf2d2c146101c2578063313ce567146101de57806340c10f19146101fc57806370a0823114610218578063715018a61461024857610121565b806306fdde0314610126578063095ea7b31461014457806318160ddd1461017457806323b872dd14610192575b600080fd5b61012e6103c0565b60405161013b91906110e1565b60405180910390f35b61015e6004803603810190610159919061119c565b610452565b60405161016b91906111f7565b60405180910390f35b61017c610475565b6040516101899190611221565b60405180910390f35b6101ac60048036038101906101a7919061123c565b61047f565b6040516101b991906111f7565b60405180910390f35b6101dc60048036038101906101d7919061119c565b6104ae565b005b6101e661051a565b6040516101f391906112ab565b60405180910390f35b6102166004803603810190610211919061119c565b610523565b005b610232600480360381019061022d91906112c6565b610539565b60405161023f9190611221565b60405180910390f35b610250610581565b005b61026c600480360381019061026791906112c6565b610595565b6040516102799190611221565b60405180910390f35b61028a6105ad565b6040516102979190611221565b60405180910390f35b6102a86105b3565b6040516102b59190611302565b60405180910390f35b6102c66105dd565b6040516102d391906110e1565b60405180910390f35b6102f660048036038101906102f1919061119c565b61066f565b005b610312600480360381019061030d919061119c565b610685565b60405161031f91906111f7565b60405180910390f35b610342600480360381019061033d919061131d565b6106a8565b005b61035e6004803603810190610359919061134a565b61070b565b60405161036b9190611221565b60405180910390f35b61038e600480360381019061038991906112c6565b610792565b60405161039b9190611221565b60405180910390f35b6103be60048036038101906103b991906112c6565b6107db565b005b6060600380546103cf906113b9565b80601f01602080910402602001604051908101604052809291908181526020018280546103fb906113b9565b80156104485780601f1061041d57610100808354040283529160200191610448565b820191906000526020600020905b81548152906001019060200180831161042b57829003601f168201915b5050505050905090565b60008061045d610861565b905061046a818585610869565b600191505092915050565b6000600254905090565b60008061048a610861565b905061049785828561087b565b6104a2858585610910565b60019150509392505050565b6104b6610a04565b6104c08282610a8b565b80600660008473ffffffffffffffffffffffffffffffffffffffff1673ffffffffffffffffffffffffffffffffffffffff168152602001908152602001600020600082825461050f9190611419565b925050819055505050565b60006012905090565b61052b610a04565b6105358282610a8b565b5050565b60008060008373ffffffffffffffffffffffffffffffffffffffff1673ffffffffffffffffffffffffffffffffffffffff168152602001908152602001600020549050919050565b610589610a04565b6105936000610b0d565b565b60066020528060005260406000206000915090505481565b60075481565b6000600560009054906101000a900473ffffffffffffffffffffffffffffffffffffffff16905090565b6060600480546105ec906113b9565b80601f0160208091040260200160405190810160405280929190818152602001828054610618906113b9565b80156106655780601f1061063a57610100808354040283529160200191610665565b820191906000526020600020905b81548152906001019060200180831161064857829003601f168201915b5050505050905090565b610677610a04565b6106818282610bd3565b5050565b600080610690610861565b905061069d818585610910565b600191505092915050565b6106b23382610bd3565b80600660003373ffffffffffffffffffffffffffffffffffffffff1673ffffffffffffffffffffffffffffffffffffffff1681526020019081526020016000206000828254610701919061144d565b9250508190555050565b6000600160008473ffffffffffffffffffffffffffffffffffffffff1673ffffffffffffffffffffffffffffffffffffffff16815260200190815260200160002060008373ffffffffffffffffffffffffffffffffffffffff1673ffffffffffffffffffffffffffffffffffffffff16815260200190815260200160002054905092915050565b6000600660008373ffffffffffffffffffffffffffffffffffffffff1673ffffffffffffffffffffffffffffffffffffffff168152602001908152602001600020549050919050565b6107e3610a04565b600073ffffffffffffffffffffffffffffffffffffffff168173ffffffffffffffffffffffffffffffffffffffff16036108555760006040517f1e4fbdf700000000000000000000000000000000000000000000000000000000815260040161084c9190611302565b60405180910390fd5b61085e81610b0d565b50565b600033905090565b6108768383836001610c55565b505050565b6000610887848461070b565b90507fffffffffffffffffffffffffffffffffffffffffffffffffffffffffffffffff81101561090a57818110156108fa578281836040517ffb8f41b20000000000000000000000000000000000000000000000000000000081526004016108f193929190611481565b60405180910390fd5b61090984848484036000610c55565b5b50505050565b600073ffffffffffffffffffffffffffffffffffffffff168373ffffffffffffffffffffffffffffffffffffffff16036109825760006040517f96c6fd1e0000000000000000000000000000000000000000000000000000000081526004016109799190611302565b60405180910390fd5b600073ffffffffffffffffffffffffffffffffffffffff168273ffffffffffffffffffffffffffffffffffffffff16036109f45760006040517fec442f050000000000000000000000000000000000000000000000000000000081526004016109eb9190611302565b60405180910390fd5b6109ff838383610e2c565b505050565b610a0c610861565b73ffffffffffffffffffffffffffffffffffffffff16610a2a6105b3565b73ffffffffffffffffffffffffffffffffffffffff1614610a8957610a4d610861565b6040517f118cdaa7000000000000000000000000000000000000000000000000000000008152600401610a809190611302565b60405180910390fd5b565b600073ffffffffffffffffffffffffffffffffffffffff168273ffffffffffffffffffffffffffffffffffffffff1603610afd5760006040517fec442f05000000000000000000000000000000000000000000000000000000008152600401610af49190611302565b60405180910390fd5b610b0960008383610e2c565b5050565b6000600560009054906101000a900473ffffffffffffffffffffffffffffffffffffffff16905081600560006101000a81548173ffffffffffffffffffffffffffffffffffffffff021916908373ffffffffffffffffffffffffffffffffffffffff1602179055508173ffffffffffffffffffffffffffffffffffffffff168173ffffffffffffffffffffffffffffffffffffffff167f8be0079c531659141344cd1fd0a4f28419497f9722a3daafe3b4186f6b6457e060405160405180910390a35050565b600073ffffffffffffffffffffffffffffffffffffffff168273ffffffffffffffffffffffffffffffffffffffff1603610c455760006040517f96c6fd1e000000000000000000000000000000000000000000000000000000008152600401610c3c9190611302565b60405180910390fd5b610c5182600083610e2c565b5050565b600073ffffffffffffffffffffffffffffffffffffffff168473ffffffffffffffffffffffffffffffffffffffff1603610cc75760006040517fe602df05000000000000000000000000000000000000000000000000000000008152600401610cbe9190611302565b60405180910390fd5b600073ffffffffffffffffffffffffffffffffffffffff168373ffffffffffffffffffffffffffffffffffffffff1603610d395760006040517f94280d62000000000000000000000000000000000000000000000000000000008152600401610d309190611302565b60405180910390fd5b81600160008673ffffffffffffffffffffffffffffffffffffffff1673ffffffffffffffffffffffffffffffffffffffff16815260200190815260200160002060008573ffffffffffffffffffffffffffffffffffffffff1673ffffffffffffffffffffffffffffffffffffffff168152602001908152602001600020819055508015610e26578273ffffffffffffffffffffffffffffffffffffffff168473ffffffffffffffffffffffffffffffffffffffff167f8c5be1e5ebec7d5bd14f71427d1e84f3dd0314c0f7b2291e5b200ac8c7c3b92584604051610e1d9190611221565b60405180910390a35b50505050565b600073ffffffffffffffffffffffffffffffffffffffff168373ffffffffffffffffffffffffffffffffffffffff1603610e7e578060026000828254610e729190611419565b92505081905550610f51565b60008060008573ffffffffffffffffffffffffffffffffffffffff1673ffffffffffffffffffffffffffffffffffffffff16815260200190815260200160002054905081811015610f0a578381836040517fe450d38c000000000000000000000000000000000000000000000000000000008152600401610f0193929190611481565b60405180910390fd5b8181036000808673ffffffffffffffffffffffffffffffffffffffff1673ffffffffffffffffffffffffffffffffffffffff16815260200190815260200160002081905550505b600073ffffffffffffffffffffffffffffffffffffffff168273ffffffffffffffffffffffffffffffffffffffff1603610f9a5780600260008282540392505081905550610fe7565b806000808473ffffffffffffffffffffffffffffffffffffffff1673ffffffffffffffffffffffffffffffffffffffff168152602001908152602001600020600082825401925050819055505b8173ffffffffffffffffffffffffffffffffffffffff168373ffffffffffffffffffffffffffffffffffffffff167fddf252ad1be2c89b69c2b068fc378daa952ba7f163c4a11628f55a4df523b3ef836040516110449190611221565b60405180910390a3505050565b600081519050919050565b600082825260208201905092915050565b60005b8381101561108b578082015181840152602081019050611070565b60008484015250505050565b6000601f19601f8301169050919050565b60006110b382611051565b6110bd818561105c565b93506110cd81856020860161106d565b6110d681611097565b840191505092915050565b600060208201905081810360008301526110fb81846110a8565b905092915050565b600080fd5b600073ffffffffffffffffffffffffffffffffffffffff82169050919050565b600061113382611108565b9050919050565b61114381611128565b811461114e57600080fd5b50565b6000813590506111608161113a565b92915050565b6000819050919050565b61117981611166565b811461118457600080fd5b50565b60008135905061119681611170565b92915050565b600080604083850312156111b3576111b2611103565b5b60006111c185828601611151565b92505060206111d285828601611187565b9150509250929050565b60008115159050919050565b6111f1816111dc565b82525050565b600060208201905061120c60008301846111e8565b92915050565b61121b81611166565b82525050565b60006020820190506112366000830184611212565b92915050565b60008060006060848603121561125557611254611103565b5b600061126386828701611151565b935050602061127486828701611151565b925050604061128586828701611187565b9150509250925092565b600060ff82169050919050565b6112a58161128f565b82525050565b60006020820190506112c0600083018461129c565b92915050565b6000602082840312156112dc576112db611103565b5b60006112ea84828501611151565b91505092915050565b6112fc81611128565b82525050565b600060208201905061131760008301846112f3565b92915050565b60006020828403121561133357611332611103565b5b600061134184828501611187565b91505092915050565b6000806040838503121561136157611360611103565b5b600061136f85828601611151565b925050602061138085828601611151565b9150509250929050565b7f4e487b7100000000000000000000000000000000000000000000000000000000600052602260045260246000fd5b600060028204905060018216806113d157607f821691505b6020821081036113e4576113e361138a565b5b50919050565b7f4e487b7100000000000000000000000000000000000000000000000000000000600052601160045260246000fd5b600061142482611166565b915061142f83611166565b9250828201905080821115611447576114466113ea565b5b92915050565b600061145882611166565b915061146383611166565b925082820390508181111561147b5761147a6113ea565b5b92915050565b600060608201905061149660008301866112f3565b6114a36020830185611212565b6114b06040830184611212565b94935050505056fea2646970667358221220ab7215a15cb7d761d2bf9c7fde469c08261d2b67ec3a0b6ba0cdd8051959707464736f6c63430008140033",
  "linkReferences": {},
  "deployedLinkReferences": {}
}