{
  "_format": "hh-sol-artifact-1",
  "contractName": "FounderVesting",
  "sourceName": "contracts/FounderVesting.sol",
  "abi": [
    {
      "inputs": [
        {
          "internalType": "address",
          "name": "_founder",
          "type": "address"
        },
        {
          "internalType": "uint256",
          "name": "_unlockTime",
          "type": "uint256"
        },
        {
          "internalType": "uint256",
          "name": "_amount",
          "type": "uint256"
        }
      ],
      "stateMutability": "nonpayable",
      "type": "constructor"
    },
    {
      "inputs": [],
      "name": "founder",
      "outputs": [
        {
          "internalType": "address",
          "name": "",
          "type": "address"
        }
      ],
      "stateMutability": "view",
      "type": "function"
    },
    {
      "inputs": [],
      "name": "unlockTime",
      "outputs": [
        {
          "internalType": "uint256",
          "name": "",
          "type": "uint256"
        }
      ],
      "stateMutability": "view",
      "type": "function"
    },
    {
      "inputs": [],
      "name": "vestedAmount",
      "outputs": [
        {
          "internalType": "uint256",
          "name": "",
          "type": "uint256"
        }
      ],
      "stateMutability": "view",
      "type": "function"
    },
    {
      "inputs": [],
      "name": "withdraw",
      "outputs": [],
      "stateMutability": "nonpayable",
      "type": "function"
    },
    {
      "inputs": [],
      "name": "withdrawn",
      "outputs": [
        {
          "internalType": "bool",
          "name": "",
          "type": "bool"
        }
      ],
      "stateMutability": "view",
      "type": "function"
    }
  ],
  "bytecode": "0x608060405234801561001057600080fd5b506040516106b93803806106b98339818101604052810190610032919061013c565b826000806101000a81548173ffffffffffffffffffffffffffffffffffffffff021916908373ffffffffffffffffffffffffffffffffffffffff16021790555081600181905550806002819055506000600360006101000a81548160ff02191690831515021790555050505061018f565b600080fd5b600073ffffffffffffffffffffffffffffffffffffffff82169050919050565b60006100d3826100a8565b9050919050565b6100e3816100c8565b81146100ee57600080fd5b50565b600081519050610100816100da565b92915050565b6000819050919050565b61011981610106565b811461012457600080fd5b50565b60008151905061013681610110565b92915050565b600080600060608486031215610155576101546100a3565b5b6000610163868287016100f1565b935050602061017486828701610127565b925050604061018586828701610127565b9150509250925092565b61051b8061019e6000396000f3fe608060405234801561001057600080fd5b50600436106100575760003560e01c8063251c1aa31461005c5780633ccfd60b1461007a57806344b1231f146100845780634d853ee5146100a2578063c80ec522146100c0575b600080fd5b6100646100de565b60405161007191906102e3565b60405180910390f35b6100826100e4565b005b61008c61028d565b60405161009991906102e3565b60405180910390f35b6100aa610293565b6040516100b7919061033f565b60405180910390f35b6100c86102b7565b6040516100d59190610375565b60405180910390f35b60015481565b60008054906101000a900473ffffffffffffffffffffffffffffffffffffffff1673ffffffffffffffffffffffffffffffffffffffff163373ffffffffffffffffffffffffffffffffffffffff1614610172576040517f08c379a0000000000000000000000000000000000000000000000000000000008152600401610169906103ed565b60405180910390fd5b6001544210156101b7576040517f08c379a00000000000000000000000000000000000000000000000000000000081526004016101ae90610459565b60405180910390fd5b600360009054906101000a900460ff1615610207576040517f08c379a00000000000000000000000000000000000000000000000000000000081526004016101fe906104c5565b60405180910390fd5b6001600360006101000a81548160ff02191690831515021790555060008054906101000a900473ffffffffffffffffffffffffffffffffffffffff1673ffffffffffffffffffffffffffffffffffffffff166108fc6002549081150290604051600060405180830381858888f1935050505015801561028a573d6000803e3d6000fd5b50565b60025481565b60008054906101000a900473ffffffffffffffffffffffffffffffffffffffff1681565b600360009054906101000a900460ff1681565b6000819050919050565b6102dd816102ca565b82525050565b60006020820190506102f860008301846102d4565b92915050565b600073ffffffffffffffffffffffffffffffffffffffff82169050919050565b6000610329826102fe565b9050919050565b6103398161031e565b82525050565b60006020820190506103546000830184610330565b92915050565b60008115159050919050565b61036f8161035a565b82525050565b600060208201905061038a6000830184610366565b92915050565b600082825260208201905092915050565b7f4e6f7420666f756e646572000000000000000000000000000000000000000000600082015250565b60006103d7600b83610390565b91506103e2826103a1565b602082019050919050565b60006020820190508181036000830152610406816103ca565b9050919050565b7f56657374696e67206e6f7420756e6c6f636b6564000000000000000000000000600082015250565b6000610443601483610390565b915061044e8261040d565b602082019050919050565b6000602082019050818103600083015261047281610436565b9050919050565b7f416c72656164792077697468647261776e000000000000000000000000000000600082015250565b60006104af601183610390565b91506104ba82610479565b602082019050919050565b600060208201905081810360008301526104de816104a2565b905091905056fea2646970667358221220ec0f4dda8395209f1053000b509bd9942b3b9585d53b3094025cf1871990bffe64736f6c63430008140033",
  "linkReferences": {},
  "deployedLinkReferences": {}
}