{
  "_format": "hh-sol-artifact-1",
  "contractName": "AzoraSavingsVault",
  "sourceName": "contracts/AzoraSavingsVault.sol",
  "abi": [
    {
      "inputs": [
        {
          "internalType": "contract IERC20Mintable",
          "name": "_azrToken",
          "type": "address"
        },
        {
          "internalType": "uint256",
          "name": "_apyBasisPoints",
          "type": "uint256"
        },
        {
          "internalType": "address",
          "name": "_governance",
          "type": "address"
        }
      ],
      "stateMutability": "nonpayable",
      "type": "constructor"
    },
    {
      "anonymous": false,
      "inputs": [
        {
          "indexed": true,
          "internalType": "address",
          "name": "user",
          "type": "address"
        },
        {
          "indexed": false,
          "internalType": "uint256",
          "name": "amount",
          "type": "uint256"
        }
      ],
      "name": "Deposited",
      "type": "event"
    },
    {
      "anonymous": false,
      "inputs": [
        {
          "indexed": true,
          "internalType": "address",
          "name": "user",
          "type": "address"
        },
        {
          "indexed": false,
          "internalType": "uint256",
          "name": "reward",
          "type": "uint256"
        }
      ],
      "name": "RewardClaimed",
      "type": "event"
    },
    {
      "anonymous": false,
      "inputs": [
        {
          "indexed": true,
          "internalType": "address",
          "name": "user",
          "type": "address"
        },
        {
          "indexed": false,
          "internalType": "uint256",
          "name": "amount",
          "type": "uint256"
        }
      ],
      "name": "Withdrawn",
      "type": "event"
    },
    {
      "inputs": [],
      "name": "apyBasisPoints",
      "outputs": [
        {
          "internalType": "uint256",
          "name": "",
          "type": "uint256"
        }
      ],
      "stateMutability": "view",
      "type": "function"
    },
    {
      "inputs": [],
      "name": "azrToken",
      "outputs": [
        {
          "internalType": "contract IERC20Mintable",
          "name": "",
          "type": "address"
        }
      ],
      "stateMutability": "view",
      "type": "function"
    },
    {
      "inputs": [
        {
          "internalType": "address",
          "name": "",
          "type": "address"
        }
      ],
      "name": "balances",
      "outputs": [
        {
          "internalType": "uint256",
          "name": "",
          "type": "uint256"
        }
      ],
      "stateMutability": "view",
      "type": "function"
    },
    {
      "inputs": [],
      "name": "claimReward",
      "outputs": [],
      "stateMutability": "nonpayable",
      "type": "function"
    },
    {
      "inputs": [
        {
          "internalType": "uint256",
          "name": "amount",
          "type": "uint256"
        }
      ],
      "name": "deposit",
      "outputs": [],
      "stateMutability": "nonpayable",
      "type": "function"
    },
    {
      "inputs": [],
      "name": "governance",
      "outputs": [
        {
          "internalType": "address",
          "name": "",
          "type": "address"
        }
      ],
      "stateMutability": "view",
      "type": "function"
    },
    {
      "inputs": [
        {
          "internalType": "address",
          "name": "",
          "type": "address"
        }
      ],
      "name": "savings",
      "outputs": [
        {
          "internalType": "uint256",
          "name": "amount",
          "type": "uint256"
        },
        {
          "internalType": "uint256",
          "name": "startTime",
          "type": "uint256"
        }
      ],
      "stateMutability": "view",
      "type": "function"
    },
    {
      "inputs": [
        {
          "internalType": "uint256",
          "name": "_apyBasisPoints",
          "type": "uint256"
        }
      ],
      "name": "setApyBasisPoints",
      "outputs": [],
      "stateMutability": "nonpayable",
      "type": "function"
    },
    {
      "inputs": [
        {
          "internalType": "address",
          "name": "_gov",
          "type": "address"
        }
      ],
      "name": "setGovernance",
      "outputs": [],
      "stateMutability": "nonpayable",
      "type": "function"
    },
    {
      "inputs": [
        {
          "internalType": "uint256",
          "name": "amount",
          "type": "uint256"
        }
      ],
      "name": "withdraw",
      "outputs": [],
      "stateMutability": "nonpayable",
      "type": "function"
    }
  ],
  "bytecode": "0x60806040523480156200001157600080fd5b50604051620011dd380380620011dd8339818101604052810190620000379190620001b2565b826000806101000a81548173ffffffffffffffffffffffffffffffffffffffff021916908373ffffffffffffffffffffffffffffffffffffffff1602179055508160028190555080600160006101000a81548173ffffffffffffffffffffffffffffffffffffffff021916908373ffffffffffffffffffffffffffffffffffffffff1602179055505050506200020e565b600080fd5b600073ffffffffffffffffffffffffffffffffffffffff82169050919050565b6000620000fa82620000cd565b9050919050565b60006200010e82620000ed565b9050919050565b620001208162000101565b81146200012c57600080fd5b50565b600081519050620001408162000115565b92915050565b6000819050919050565b6200015b8162000146565b81146200016757600080fd5b50565b6000815190506200017b8162000150565b92915050565b6200018c81620000ed565b81146200019857600080fd5b50565b600081519050620001ac8162000181565b92915050565b600080600060608486031215620001ce57620001cd620000c8565b5b6000620001de868287016200012f565b9350506020620001f1868287016200016a565b925050604062000204868287016200019b565b9150509250925092565b610fbf806200021e6000396000f3fe608060405234801561001057600080fd5b506004361061009e5760003560e01c806393a6983d1161006657806393a6983d1461015a578063ab033ea914610178578063b6b55f2514610194578063b88a802f146101b0578063cf7aa26b146101ba5761009e565b80631f7cdd5f146100a357806327e235e3146100d45780632e1a7d4d146101045780635aa6e6751461012057806362bd65b21461013e575b600080fd5b6100bd60048036038101906100b891906109d7565b6101d8565b6040516100cb929190610a1d565b60405180910390f35b6100ee60048036038101906100e991906109d7565b6101fc565b6040516100fb9190610a46565b60405180910390f35b61011e60048036038101906101199190610a8d565b610214565b005b6101286103ca565b6040516101359190610ac9565b60405180910390f35b61015860048036038101906101539190610a8d565b6103f0565b005b61016261048a565b60405161016f9190610a46565b60405180910390f35b610192600480360381019061018d91906109d7565b610490565b005b6101ae60048036038101906101a99190610a8d565b610564565b005b6101b8610798565b005b6101c2610950565b6040516101cf9190610b43565b60405180910390f35b60046020528060005260406000206000915090508060000154908060010154905082565b60036020528060005260406000206000915090505481565b80600360003373ffffffffffffffffffffffffffffffffffffffff1673ffffffffffffffffffffffffffffffffffffffff168152602001908152602001600020541015610296576040517f08c379a000000000000000000000000000000000000000000000000000000000815260040161028d90610bbb565b60405180910390fd5b80600360003373ffffffffffffffffffffffffffffffffffffffff1673ffffffffffffffffffffffffffffffffffffffff16815260200190815260200160002060008282546102e59190610c0a565b9250508190555060008054906101000a900473ffffffffffffffffffffffffffffffffffffffff1673ffffffffffffffffffffffffffffffffffffffff166340c10f1933836040518363ffffffff1660e01b8152600401610347929190610c3e565b600060405180830381600087803b15801561036157600080fd5b505af1158015610375573d6000803e3d6000fd5b505050503373ffffffffffffffffffffffffffffffffffffffff167f7084f5476618d8e60b11ef0d7d3f06914655adb8793e28ff7f018d4c76d505d5826040516103bf9190610a46565b60405180910390a250565b600160009054906101000a900473ffffffffffffffffffffffffffffffffffffffff1681565b600160009054906101000a900473ffffffffffffffffffffffffffffffffffffffff1673ffffffffffffffffffffffffffffffffffffffff163373ffffffffffffffffffffffffffffffffffffffff1614610480576040517f08c379a000000000000000000000000000000000000000000000000000000000815260040161047790610cb3565b60405180910390fd5b8060028190555050565b60025481565b600160009054906101000a900473ffffffffffffffffffffffffffffffffffffffff1673ffffffffffffffffffffffffffffffffffffffff163373ffffffffffffffffffffffffffffffffffffffff1614610520576040517f08c379a000000000000000000000000000000000000000000000000000000000815260040161051790610cb3565b60405180910390fd5b80600160006101000a81548173ffffffffffffffffffffffffffffffffffffffff021916908373ffffffffffffffffffffffffffffffffffffffff16021790555050565b600081116105a7576040517f08c379a000000000000000000000000000000000000000000000000000000000815260040161059e90610d1f565b60405180910390fd5b60008054906101000a900473ffffffffffffffffffffffffffffffffffffffff1673ffffffffffffffffffffffffffffffffffffffff166323b872dd3330846040518463ffffffff1660e01b815260040161060493929190610d3f565b6020604051808303816000875af1158015610623573d6000803e3d6000fd5b505050506040513d601f19601f820116820180604052508101906106479190610dae565b610686576040517f08c379a000000000000000000000000000000000000000000000000000000000815260040161067d90610e27565b60405180910390fd5b80600360003373ffffffffffffffffffffffffffffffffffffffff1673ffffffffffffffffffffffffffffffffffffffff16815260200190815260200160002060008282546106d59190610e47565b92505081905550604051806040016040528082815260200142815250600460003373ffffffffffffffffffffffffffffffffffffffff1673ffffffffffffffffffffffffffffffffffffffff16815260200190815260200160002060008201518160000155602082015181600101559050503373ffffffffffffffffffffffffffffffffffffffff167f2da466a7b24304f47e87fa2e1e5a81b9831ce54fec19055ce277ca2f39ba42c48260405161078d9190610a46565b60405180910390a250565b6000600460003373ffffffffffffffffffffffffffffffffffffffff1673ffffffffffffffffffffffffffffffffffffffff16815260200190815260200160002090506000816000015411610822576040517f08c379a000000000000000000000000000000000000000000000000000000000815260040161081990610ec7565b60405180910390fd5b60008160010154426108349190610c0a565b9050600064496cebb8008260025485600001546108519190610ee7565b61085b9190610ee7565b6108659190610f58565b905060008054906101000a900473ffffffffffffffffffffffffffffffffffffffff1673ffffffffffffffffffffffffffffffffffffffff166340c10f1933836040518363ffffffff1660e01b81526004016108c2929190610c3e565b600060405180830381600087803b1580156108dc57600080fd5b505af11580156108f0573d6000803e3d6000fd5b505050504283600101819055503373ffffffffffffffffffffffffffffffffffffffff167f106f923f993c2149d49b4255ff723acafa1f2d94393f561d3eda32ae348f7241826040516109439190610a46565b60405180910390a2505050565b60008054906101000a900473ffffffffffffffffffffffffffffffffffffffff1681565b600080fd5b600073ffffffffffffffffffffffffffffffffffffffff82169050919050565b60006109a482610979565b9050919050565b6109b481610999565b81146109bf57600080fd5b50565b6000813590506109d1816109ab565b92915050565b6000602082840312156109ed576109ec610974565b5b60006109fb848285016109c2565b91505092915050565b6000819050919050565b610a1781610a04565b82525050565b6000604082019050610a326000830185610a0e565b610a3f6020830184610a0e565b9392505050565b6000602082019050610a5b6000830184610a0e565b92915050565b610a6a81610a04565b8114610a7557600080fd5b50565b600081359050610a8781610a61565b92915050565b600060208284031215610aa357610aa2610974565b5b6000610ab184828501610a78565b91505092915050565b610ac381610999565b82525050565b6000602082019050610ade6000830184610aba565b92915050565b6000819050919050565b6000610b09610b04610aff84610979565b610ae4565b610979565b9050919050565b6000610b1b82610aee565b9050919050565b6000610b2d82610b10565b9050919050565b610b3d81610b22565b82525050565b6000602082019050610b586000830184610b34565b92915050565b600082825260208201905092915050565b7f696e73756666696369656e742062616c616e6365000000000000000000000000600082015250565b6000610ba5601483610b5e565b9150610bb082610b6f565b602082019050919050565b60006020820190508181036000830152610bd481610b98565b9050919050565b7f4e487b7100000000000000000000000000000000000000000000000000000000600052601160045260246000fd5b6000610c1582610a04565b9150610c2083610a04565b9250828203905081811115610c3857610c37610bdb565b5b92915050565b6000604082019050610c536000830185610aba565b610c606020830184610a0e565b9392505050565b7f6f6e6c7920676f7665726e616e63650000000000000000000000000000000000600082015250565b6000610c9d600f83610b5e565b9150610ca882610c67565b602082019050919050565b60006020820190508181036000830152610ccc81610c90565b9050919050565b7f616d6f756e74206d757374206265203e20300000000000000000000000000000600082015250565b6000610d09601283610b5e565b9150610d1482610cd3565b602082019050919050565b60006020820190508181036000830152610d3881610cfc565b9050919050565b6000606082019050610d546000830186610aba565b610d616020830185610aba565b610d6e6040830184610a0e565b949350505050565b60008115159050919050565b610d8b81610d76565b8114610d9657600080fd5b50565b600081519050610da881610d82565b92915050565b600060208284031215610dc457610dc3610974565b5b6000610dd284828501610d99565b91505092915050565b7f7472616e73666572206661696c65640000000000000000000000000000000000600082015250565b6000610e11600f83610b5e565b9150610e1c82610ddb565b602082019050919050565b60006020820190508181036000830152610e4081610e04565b9050919050565b6000610e5282610a04565b9150610e5d83610a04565b9250828201905080821115610e7557610e74610bdb565b5b92915050565b7f6e6f20736176696e677300000000000000000000000000000000000000000000600082015250565b6000610eb1600a83610b5e565b9150610ebc82610e7b565b602082019050919050565b60006020820190508181036000830152610ee081610ea4565b9050919050565b6000610ef282610a04565b9150610efd83610a04565b9250828202610f0b81610a04565b91508282048414831517610f2257610f21610bdb565b5b5092915050565b7f4e487b7100000000000000000000000000000000000000000000000000000000600052601260045260246000fd5b6000610f6382610a04565b9150610f6e83610a04565b925082610f7e57610f7d610f29565b5b82820490509291505056fea264697066735822122060ebb83aa02cf691ff5ff9229a8ae30bce65d702046f44748970a6b7b8bd25a964736f6c63430008140033",
  "linkReferences": {},
  "deployedLinkReferences": {}
}