{
  "_format": "hh-sol-artifact-1",
  "contractName": "AzoraSavingsVault",
  "sourceName": "contracts/AzoraSavingsVault.sol",
  "abi": [
    {
      "inputs": [
        {
          "internalType": "contract IERC20Mintable",
          "name": "_azr",
          "type": "address"
        },
        {
          "internalType": "uint256",
          "name": "_apyBasisPoints",
          "type": "uint256"
        },
        {
          "internalType": "address",
          "name": "_governance",
          "type": "address"
        }
      ],
      "stateMutability": "nonpayable",
      "type": "constructor"
    },
    {
      "anonymous": false,
      "inputs": [
        {
          "indexed": true,
          "internalType": "address",
          "name": "user",
          "type": "address"
        },
        {
          "indexed": false,
          "internalType": "uint256",
          "name": "amount",
          "type": "uint256"
        }
      ],
      "name": "Staked",
      "type": "event"
    },
    {
      "anonymous": false,
      "inputs": [
        {
          "indexed": true,
          "internalType": "address",
          "name": "user",
          "type": "address"
        },
        {
          "indexed": false,
          "internalType": "uint256",
          "name": "amount",
          "type": "uint256"
        },
        {
          "indexed": false,
          "internalType": "uint256",
          "name": "reward",
          "type": "uint256"
        }
      ],
      "name": "Unstaked",
      "type": "event"
    },
    {
      "inputs": [
        {
          "internalType": "address",
          "name": "user",
          "type": "address"
        }
      ],
      "name": "_calculateReward",
      "outputs": [
        {
          "internalType": "uint256",
          "name": "",
          "type": "uint256"
        }
      ],
      "stateMutability": "view",
      "type": "function"
    },
    {
      "inputs": [],
      "name": "apyBasisPoints",
      "outputs": [
        {
          "internalType": "uint256",
          "name": "",
          "type": "uint256"
        }
      ],
      "stateMutability": "view",
      "type": "function"
    },
    {
      "inputs": [],
      "name": "azr",
      "outputs": [
        {
          "internalType": "contract IERC20Mintable",
          "name": "",
          "type": "address"
        }
      ],
      "stateMutability": "view",
      "type": "function"
    },
    {
      "inputs": [],
      "name": "governance",
      "outputs": [
        {
          "internalType": "address",
          "name": "",
          "type": "address"
        }
      ],
      "stateMutability": "view",
      "type": "function"
    },
    {
      "inputs": [
        {
          "internalType": "uint256",
          "name": "_apyBasisPoints",
          "type": "uint256"
        }
      ],
      "name": "setAPY",
      "outputs": [],
      "stateMutability": "nonpayable",
      "type": "function"
    },
    {
      "inputs": [
        {
          "internalType": "address",
          "name": "_gov",
          "type": "address"
        }
      ],
      "name": "setGovernance",
      "outputs": [],
      "stateMutability": "nonpayable",
      "type": "function"
    },
    {
      "inputs": [
        {
          "internalType": "uint256",
          "name": "amount",
          "type": "uint256"
        }
      ],
      "name": "stake",
      "outputs": [],
      "stateMutability": "nonpayable",
      "type": "function"
    },
    {
      "inputs": [
        {
          "internalType": "address",
          "name": "",
          "type": "address"
        }
      ],
      "name": "stakes",
      "outputs": [
        {
          "internalType": "uint256",
          "name": "amount",
          "type": "uint256"
        },
        {
          "internalType": "uint256",
          "name": "since",
          "type": "uint256"
        }
      ],
      "stateMutability": "view",
      "type": "function"
    },
    {
      "inputs": [
        {
          "internalType": "uint256",
          "name": "amount",
          "type": "uint256"
        }
      ],
      "name": "unstake",
      "outputs": [],
      "stateMutability": "nonpayable",
      "type": "function"
    }
  ],
  "bytecode": "0x60a06040523480156200001157600080fd5b5060405162001101380380620011018339818101604052810190620000379190620001a5565b8273ffffffffffffffffffffffffffffffffffffffff1660808173ffffffffffffffffffffffffffffffffffffffff168152505081600181905550806000806101000a81548173ffffffffffffffffffffffffffffffffffffffff021916908373ffffffffffffffffffffffffffffffffffffffff16021790555050505062000201565b600080fd5b600073ffffffffffffffffffffffffffffffffffffffff82169050919050565b6000620000ed82620000c0565b9050919050565b60006200010182620000e0565b9050919050565b6200011381620000f4565b81146200011f57600080fd5b50565b600081519050620001338162000108565b92915050565b6000819050919050565b6200014e8162000139565b81146200015a57600080fd5b50565b6000815190506200016e8162000143565b92915050565b6200017f81620000e0565b81146200018b57600080fd5b50565b6000815190506200019f8162000174565b92915050565b600080600060608486031215620001c157620001c0620000bb565b5b6000620001d18682870162000122565b9350506020620001e4868287016200015d565b9250506040620001f7868287016200018e565b9150509250925092565b608051610ed66200022b600039600081816103ff015281816104e1015261064c0152610ed66000f3fe608060405234801561001057600080fd5b50600436106100935760003560e01c8063497f285d11610066578063497f285d1461011f5780635aa6e6751461014f57806393a6983d1461016d578063a694fc3a1461018b578063ab033ea9146101a757610093565b806316934fc41461009857806324f45e67146100c95780632e17de78146100e557806340c6000714610101575b600080fd5b6100b260048036038101906100ad919061095a565b6101c3565b6040516100c09291906109a0565b60405180910390f35b6100e360048036038101906100de91906109f5565b6101e7565b005b6100ff60048036038101906100fa91906109f5565b61027f565b005b6101096104df565b6040516101169190610a81565b60405180910390f35b6101396004803603810190610134919061095a565b610503565b6040516101469190610a9c565b60405180910390f35b6101576105dd565b6040516101649190610ac6565b60405180910390f35b610175610601565b6040516101829190610a9c565b60405180910390f35b6101a560048036038101906101a091906109f5565b610607565b005b6101c160048036038101906101bc919061095a565b610823565b005b60026020528060005260406000206000915090508060000154908060010154905082565b60008054906101000a900473ffffffffffffffffffffffffffffffffffffffff1673ffffffffffffffffffffffffffffffffffffffff163373ffffffffffffffffffffffffffffffffffffffff1614610275576040517f08c379a000000000000000000000000000000000000000000000000000000000815260040161026c90610b3e565b60405180910390fd5b8060018190555050565b600081116102c2576040517f08c379a00000000000000000000000000000000000000000000000000000000081526004016102b990610baa565b60405180910390fd5b80600260003373ffffffffffffffffffffffffffffffffffffffff1673ffffffffffffffffffffffffffffffffffffffff168152602001908152602001600020600001541015610347576040517f08c379a000000000000000000000000000000000000000000000000000000000815260040161033e90610c16565b60405180910390fd5b600061035233610503565b905081600260003373ffffffffffffffffffffffffffffffffffffffff1673ffffffffffffffffffffffffffffffffffffffff16815260200190815260200160002060000160008282546103a69190610c65565b9250508190555042600260003373ffffffffffffffffffffffffffffffffffffffff1673ffffffffffffffffffffffffffffffffffffffff16815260200190815260200160002060010181905550600081111561048b577f000000000000000000000000000000000000000000000000000000000000000073ffffffffffffffffffffffffffffffffffffffff166340c10f1933836040518363ffffffff1660e01b8152600401610458929190610c99565b600060405180830381600087803b15801561047257600080fd5b505af1158015610486573d6000803e3d6000fd5b505050505b3373ffffffffffffffffffffffffffffffffffffffff167f7fc4727e062e336010f2c282598ef5f14facb3de68cf8195c2f23e1454b2b74e83836040516104d39291906109a0565b60405180910390a25050565b7f000000000000000000000000000000000000000000000000000000000000000081565b600080600260008473ffffffffffffffffffffffffffffffffffffffff1673ffffffffffffffffffffffffffffffffffffffff16815260200190815260200160002060405180604001604052908160008201548152602001600182015481525050905060008160000151148061057d575060008160200151145b1561058c5760009150506105d8565b600081602001514261059e9190610c65565b9050600064496cebb8008260015485600001516105bb9190610cc2565b6105c59190610cc2565b6105cf9190610d33565b90508093505050505b919050565b60008054906101000a900473ffffffffffffffffffffffffffffffffffffffff1681565b60015481565b6000811161064a576040517f08c379a000000000000000000000000000000000000000000000000000000000815260040161064190610baa565b60405180910390fd5b7f000000000000000000000000000000000000000000000000000000000000000073ffffffffffffffffffffffffffffffffffffffff166323b872dd3330846040518463ffffffff1660e01b81526004016106a793929190610d64565b6020604051808303816000875af11580156106c6573d6000803e3d6000fd5b505050506040513d601f19601f820116820180604052508101906106ea9190610dd3565b610729576040517f08c379a000000000000000000000000000000000000000000000000000000000815260040161072090610e4c565b60405180910390fd5b610732336108f4565b80600260003373ffffffffffffffffffffffffffffffffffffffff1673ffffffffffffffffffffffffffffffffffffffff16815260200190815260200160002060000160008282546107849190610e6c565b9250508190555042600260003373ffffffffffffffffffffffffffffffffffffffff1673ffffffffffffffffffffffffffffffffffffffff168152602001908152602001600020600101819055503373ffffffffffffffffffffffffffffffffffffffff167f9e71bc8eea02a63969f509818f2dafb9254532904319f9dbda79b67bd34a5f3d826040516108189190610a9c565b60405180910390a250565b60008054906101000a900473ffffffffffffffffffffffffffffffffffffffff1673ffffffffffffffffffffffffffffffffffffffff163373ffffffffffffffffffffffffffffffffffffffff16146108b1576040517f08c379a00000000000000000000000000000000000000000000000000000000081526004016108a890610b3e565b60405180910390fd5b806000806101000a81548173ffffffffffffffffffffffffffffffffffffffff021916908373ffffffffffffffffffffffffffffffffffffffff16021790555050565b50565b600080fd5b600073ffffffffffffffffffffffffffffffffffffffff82169050919050565b6000610927826108fc565b9050919050565b6109378161091c565b811461094257600080fd5b50565b6000813590506109548161092e565b92915050565b6000602082840312156109705761096f6108f7565b5b600061097e84828501610945565b91505092915050565b6000819050919050565b61099a81610987565b82525050565b60006040820190506109b56000830185610991565b6109c26020830184610991565b9392505050565b6109d281610987565b81146109dd57600080fd5b50565b6000813590506109ef816109c9565b92915050565b600060208284031215610a0b57610a0a6108f7565b5b6000610a19848285016109e0565b91505092915050565b6000819050919050565b6000610a47610a42610a3d846108fc565b610a22565b6108fc565b9050919050565b6000610a5982610a2c565b9050919050565b6000610a6b82610a4e565b9050919050565b610a7b81610a60565b82525050565b6000602082019050610a966000830184610a72565b92915050565b6000602082019050610ab16000830184610991565b92915050565b610ac08161091c565b82525050565b6000602082019050610adb6000830184610ab7565b92915050565b600082825260208201905092915050565b7f6f6e6c7920676f7665726e616e63650000000000000000000000000000000000600082015250565b6000610b28600f83610ae1565b9150610b3382610af2565b602082019050919050565b60006020820190508181036000830152610b5781610b1b565b9050919050565b7f616d6f756e743d30000000000000000000000000000000000000000000000000600082015250565b6000610b94600883610ae1565b9150610b9f82610b5e565b602082019050919050565b60006020820190508181036000830152610bc381610b87565b9050919050565b7f696e73756666696369656e74207374616b650000000000000000000000000000600082015250565b6000610c00601283610ae1565b9150610c0b82610bca565b602082019050919050565b60006020820190508181036000830152610c2f81610bf3565b9050919050565b7f4e487b7100000000000000000000000000000000000000000000000000000000600052601160045260246000fd5b6000610c7082610987565b9150610c7b83610987565b9250828203905081811115610c9357610c92610c36565b5b92915050565b6000604082019050610cae6000830185610ab7565b610cbb6020830184610991565b9392505050565b6000610ccd82610987565b9150610cd883610987565b9250828202610ce681610987565b91508282048414831517610cfd57610cfc610c36565b5b5092915050565b7f4e487b7100000000000000000000000000000000000000000000000000000000600052601260045260246000fd5b6000610d3e82610987565b9150610d4983610987565b925082610d5957610d58610d04565b5b828204905092915050565b6000606082019050610d796000830186610ab7565b610d866020830185610ab7565b610d936040830184610991565b949350505050565b60008115159050919050565b610db081610d9b565b8114610dbb57600080fd5b50565b600081519050610dcd81610da7565b92915050565b600060208284031215610de957610de86108f7565b5b6000610df784828501610dbe565b91505092915050565b7f7472616e73666572206661696c65640000000000000000000000000000000000600082015250565b6000610e36600f83610ae1565b9150610e4182610e00565b602082019050919050565b60006020820190508181036000830152610e6581610e29565b9050919050565b6000610e7782610987565b9150610e8283610987565b9250828201905080821115610e9a57610e99610c36565b5b9291505056fea26469706673582212204b7ac46fa5c9ea71948dc7dcead92a0367120b4925ec2b4d4b8ff5c1c85eac4a64736f6c63430008140033",
  "linkReferences": {},
  "deployedLinkReferences": {}
}