{
  "_format": "hh-sol-artifact-1",
  "contractName": "ViralRewards",
  "sourceName": "contracts/ViralRewards.sol",
  "abi": [
    {
      "inputs": [
        {
          "internalType": "contract IERC20Mintable",
          "name": "_azrToken",
          "type": "address"
        },
        {
          "internalType": "uint256",
          "name": "_baseReferralReward",
          "type": "uint256"
        },
        {
          "internalType": "address",
          "name": "_governance",
          "type": "address"
        }
      ],
      "stateMutability": "nonpayable",
      "type": "constructor"
    },
    {
      "anonymous": false,
      "inputs": [
        {
          "indexed": true,
          "internalType": "address",
          "name": "referrer",
          "type": "address"
        },
        {
          "indexed": true,
          "internalType": "address",
          "name": "referee",
          "type": "address"
        }
      ],
      "name": "ReferralConfirmed",
      "type": "event"
    },
    {
      "anonymous": false,
      "inputs": [
        {
          "indexed": true,
          "internalType": "address",
          "name": "referrer",
          "type": "address"
        },
        {
          "indexed": false,
          "internalType": "uint256",
          "name": "amount",
          "type": "uint256"
        },
        {
          "indexed": false,
          "internalType": "bool",
          "name": "evangelistBonus",
          "type": "bool"
        }
      ],
      "name": "RewardPaid",
      "type": "event"
    },
    {
      "inputs": [],
      "name": "EVANGELIST_LIMIT",
      "outputs": [
        {
          "internalType": "uint256",
          "name": "",
          "type": "uint256"
        }
      ],
      "stateMutability": "view",
      "type": "function"
    },
    {
      "inputs": [],
      "name": "EVANGELIST_THRESHOLD",
      "outputs": [
        {
          "internalType": "uint256",
          "name": "",
          "type": "uint256"
        }
      ],
      "stateMutability": "view",
      "type": "function"
    },
    {
      "inputs": [],
      "name": "azrToken",
      "outputs": [
        {
          "internalType": "contract IERC20Mintable",
          "name": "",
          "type": "address"
        }
      ],
      "stateMutability": "view",
      "type": "function"
    },
    {
      "inputs": [],
      "name": "baseReferralReward",
      "outputs": [
        {
          "internalType": "uint256",
          "name": "",
          "type": "uint256"
        }
      ],
      "stateMutability": "view",
      "type": "function"
    },
    {
      "inputs": [
        {
          "internalType": "address",
          "name": "referrer",
          "type": "address"
        },
        {
          "internalType": "address",
          "name": "referee",
          "type": "address"
        }
      ],
      "name": "confirmReferral",
      "outputs": [],
      "stateMutability": "nonpayable",
      "type": "function"
    },
    {
      "inputs": [],
      "name": "evangelistCount",
      "outputs": [
        {
          "internalType": "uint256",
          "name": "",
          "type": "uint256"
        }
      ],
      "stateMutability": "view",
      "type": "function"
    },
    {
      "inputs": [
        {
          "internalType": "address",
          "name": "",
          "type": "address"
        }
      ],
      "name": "evangelistPaid",
      "outputs": [
        {
          "internalType": "bool",
          "name": "",
          "type": "bool"
        }
      ],
      "stateMutability": "view",
      "type": "function"
    },
    {
      "inputs": [],
      "name": "governance",
      "outputs": [
        {
          "internalType": "address",
          "name": "",
          "type": "address"
        }
      ],
      "stateMutability": "view",
      "type": "function"
    },
    {
      "inputs": [
        {
          "internalType": "address",
          "name": "",
          "type": "address"
        }
      ],
      "name": "referrals",
      "outputs": [
        {
          "internalType": "uint256",
          "name": "",
          "type": "uint256"
        }
      ],
      "stateMutability": "view",
      "type": "function"
    },
    {
      "inputs": [
        {
          "internalType": "address",
          "name": "",
          "type": "address"
        }
      ],
      "name": "referrerReferredCount",
      "outputs": [
        {
          "internalType": "uint256",
          "name": "",
          "type": "uint256"
        }
      ],
      "stateMutability": "view",
      "type": "function"
    },
    {
      "inputs": [
        {
          "internalType": "uint256",
          "name": "_amount",
          "type": "uint256"
        }
      ],
      "name": "setBaseReferralReward",
      "outputs": [],
      "stateMutability": "nonpayable",
      "type": "function"
    },
    {
      "inputs": [
        {
          "internalType": "address",
          "name": "_gov",
          "type": "address"
        }
      ],
      "name": "setGovernance",
      "outputs": [],
      "stateMutability": "nonpayable",
      "type": "function"
    }
  ],
  "bytecode": "0x60a06040523480156200001157600080fd5b5060405162000f0438038062000f048339818101604052810190620000379190620001a5565b8273ffffffffffffffffffffffffffffffffffffffff1660808173ffffffffffffffffffffffffffffffffffffffff168152505081600281905550806000806101000a81548173ffffffffffffffffffffffffffffffffffffffff021916908373ffffffffffffffffffffffffffffffffffffffff16021790555050505062000201565b600080fd5b600073ffffffffffffffffffffffffffffffffffffffff82169050919050565b6000620000ed82620000c0565b9050919050565b60006200010182620000e0565b9050919050565b6200011381620000f4565b81146200011f57600080fd5b50565b600081519050620001338162000108565b92915050565b6000819050919050565b6200014e8162000139565b81146200015a57600080fd5b50565b6000815190506200016e8162000143565b92915050565b6200017f81620000e0565b81146200018b57600080fd5b50565b6000815190506200019f8162000174565b92915050565b600080600060608486031215620001c157620001c0620000bb565b5b6000620001d18682870162000122565b9350506020620001e4868287016200015d565b9250506040620001f7868287016200018e565b9150509250925092565b608051610ce0620002246000396000818161076601526107b30152610ce06000f3fe608060405234801561001057600080fd5b50600436106100b45760003560e01c80639ca423b3116100715780639ca423b31461017b578063ab033ea9146101ab578063c9be8b0a146101c7578063cf7aa26b146101f7578063d895845514610215578063e3f906f314610233576100b4565b80631983bfb7146100b95780635aa6e675146100d757806364acdf04146100f55780636b30028a146101255780636d5a1058146101415780637186080b1461015f575b600080fd5b6100c1610251565b6040516100ce91906108ac565b60405180910390f35b6100df610257565b6040516100ec9190610908565b60405180910390f35b61010f600480360381019061010a9190610954565b61027b565b60405161011c91906108ac565b60405180910390f35b61013f600480360381019061013a91906109ad565b610293565b005b61014961032b565b60405161015691906108ac565b60405180910390f35b610179600480360381019061017491906109da565b610330565b005b61019560048036038101906101909190610954565b61065b565b6040516101a291906108ac565b60405180910390f35b6101c560048036038101906101c09190610954565b610673565b005b6101e160048036038101906101dc9190610954565b610744565b6040516101ee9190610a35565b60405180910390f35b6101ff610764565b60405161020c9190610aaf565b60405180910390f35b61021d610788565b60405161022a91906108ac565b60405180910390f35b61023b61078e565b60405161024891906108ac565b60405180910390f35b60025481565b60008054906101000a900473ffffffffffffffffffffffffffffffffffffffff1681565b60046020528060005260406000206000915090505481565b60008054906101000a900473ffffffffffffffffffffffffffffffffffffffff1673ffffffffffffffffffffffffffffffffffffffff163373ffffffffffffffffffffffffffffffffffffffff1614610321576040517f08c379a000000000000000000000000000000000000000000000000000000000815260040161031890610b27565b60405180910390fd5b8060028190555050565b600581565b60008054906101000a900473ffffffffffffffffffffffffffffffffffffffff1673ffffffffffffffffffffffffffffffffffffffff163373ffffffffffffffffffffffffffffffffffffffff16146103be576040517f08c379a00000000000000000000000000000000000000000000000000000000081526004016103b590610b27565b60405180910390fd5b600073ffffffffffffffffffffffffffffffffffffffff168273ffffffffffffffffffffffffffffffffffffffff16141580156104285750600073ffffffffffffffffffffffffffffffffffffffff168173ffffffffffffffffffffffffffffffffffffffff1614155b610467576040517f08c379a000000000000000000000000000000000000000000000000000000000815260040161045e90610b93565b60405180910390fd5b6001600460008473ffffffffffffffffffffffffffffffffffffffff1673ffffffffffffffffffffffffffffffffffffffff16815260200190815260200160002060008282546104b79190610be2565b925050819055508073ffffffffffffffffffffffffffffffffffffffff168273ffffffffffffffffffffffffffffffffffffffff167fc3ce898da19fe9d17fca2ff98ef98d602b875d5af5ce171300476938e5d713bd60405160405180910390a36005600460008473ffffffffffffffffffffffffffffffffffffffff1673ffffffffffffffffffffffffffffffffffffffff16815260200190815260200160002054101580156105b25750600560008373ffffffffffffffffffffffffffffffffffffffff1673ffffffffffffffffffffffffffffffffffffffff16815260200190815260200160002060009054906101000a900460ff16155b1561064b57600061271060015410156105e35760018060008282546105d79190610be2565b92505081905550600190505b6105ed8382610794565b6001600560008573ffffffffffffffffffffffffffffffffffffffff1673ffffffffffffffffffffffffffffffffffffffff16815260200190815260200160002060006101000a81548160ff02191690831515021790555050610657565b610656826000610794565b5b5050565b60036020528060005260406000206000915090505481565b60008054906101000a900473ffffffffffffffffffffffffffffffffffffffff1673ffffffffffffffffffffffffffffffffffffffff163373ffffffffffffffffffffffffffffffffffffffff1614610701576040517f08c379a00000000000000000000000000000000000000000000000000000000081526004016106f890610b27565b60405180910390fd5b806000806101000a81548173ffffffffffffffffffffffffffffffffffffffff021916908373ffffffffffffffffffffffffffffffffffffffff16021790555050565b60056020528060005260406000206000915054906101000a900460ff1681565b7f000000000000000000000000000000000000000000000000000000000000000081565b61271081565b60015481565b6000600254905081156107b1576002816107ae9190610c16565b90505b7f000000000000000000000000000000000000000000000000000000000000000073ffffffffffffffffffffffffffffffffffffffff166340c10f1984836040518363ffffffff1660e01b815260040161080c929190610c58565b600060405180830381600087803b15801561082657600080fd5b505af115801561083a573d6000803e3d6000fd5b505050508273ffffffffffffffffffffffffffffffffffffffff167f16027d9cd5ffbfabaed8d9c40e1908fdeae11ae44ba883b5eab9c0bcbf1355b08284604051610886929190610c81565b60405180910390a2505050565b6000819050919050565b6108a681610893565b82525050565b60006020820190506108c1600083018461089d565b92915050565b600073ffffffffffffffffffffffffffffffffffffffff82169050919050565b60006108f2826108c7565b9050919050565b610902816108e7565b82525050565b600060208201905061091d60008301846108f9565b92915050565b600080fd5b610931816108e7565b811461093c57600080fd5b50565b60008135905061094e81610928565b92915050565b60006020828403121561096a57610969610923565b5b60006109788482850161093f565b91505092915050565b61098a81610893565b811461099557600080fd5b50565b6000813590506109a781610981565b92915050565b6000602082840312156109c3576109c2610923565b5b60006109d184828501610998565b91505092915050565b600080604083850312156109f1576109f0610923565b5b60006109ff8582860161093f565b9250506020610a108582860161093f565b9150509250929050565b60008115159050919050565b610a2f81610a1a565b82525050565b6000602082019050610a4a6000830184610a26565b92915050565b6000819050919050565b6000610a75610a70610a6b846108c7565b610a50565b6108c7565b9050919050565b6000610a8782610a5a565b9050919050565b6000610a9982610a7c565b9050919050565b610aa981610a8e565b82525050565b6000602082019050610ac46000830184610aa0565b92915050565b600082825260208201905092915050565b7f6f6e6c7920676f7665726e616e63650000000000000000000000000000000000600082015250565b6000610b11600f83610aca565b9150610b1c82610adb565b602082019050919050565b60006020820190508181036000830152610b4081610b04565b9050919050565b7f696e76616c696420616464726573736573000000000000000000000000000000600082015250565b6000610b7d601183610aca565b9150610b8882610b47565b602082019050919050565b60006020820190508181036000830152610bac81610b70565b9050919050565b7f4e487b7100000000000000000000000000000000000000000000000000000000600052601160045260246000fd5b6000610bed82610893565b9150610bf883610893565b9250828201905080821115610c1057610c0f610bb3565b5b92915050565b6000610c2182610893565b9150610c2c83610893565b9250828202610c3a81610893565b91508282048414831517610c5157610c50610bb3565b5b5092915050565b6000604082019050610c6d60008301856108f9565b610c7a602083018461089d565b9392505050565b6000604082019050610c96600083018561089d565b610ca36020830184610a26565b939250505056fea2646970667358221220428a491f474f097f9da45e54ca34c0b75a5818cd5b79358857fa35bbebea2bd364736f6c63430008140033",
  "linkReferences": {},
  "deployedLinkReferences": {}
}